:10000000F89400240FBECFEFD8E0CDBFDEBF0C9434
:1000100030000092C00007E620E02093C500009366
:10002000C40008E00093C10006E00093C2000895F8
:100030000091C00000720015D9F31093C600089516
:10004000D8011D91103019F00E941800FACF0895C0
:10005000D801215021F01D910E941800FACF089577
:100060000E94090006E211E02FEF0E94280006E23C
:0E00700011E00E9420000C943D00F894FFCF98
:10007E000000000000000000000000000000000072
:10008E000000000000000000000000000000000062
:10009E000000000000000000000000000000000052
:1000AE000000000000000000000000000000000042
:1000BE000000000000000000000000000000000032
:1000CE000000000000000000000000000000000022
:1000DE000000000000000000000000000000000012
:1000EE000000000000000000000000000000000002
:1000FE0000000000000000000000000000000000F2
:10010E0000000000000000000000000000000000E1
:10011E0000000000000000000000000000000000D1
:10012E0000000000000000000000000000000000C1
:10013E0000000000000000000000000000000000B1
:10014E0000000000000000000000000000000000A1
:10015E000000000000000000000000000000000091
:10016E000000000000000000000000000000000081
:10017E000000000000000000000000000000000071
:10018E000000000000000000000000000000000061
:10019E0048656C6C6F2C20576F726C64210A0000DE
:00000001FF
