:100000000C9434000C943E000C943E000C943E0082
:100010000C943E000C943E000C943E000C943E0068
:100020000C943E000C943E000C943E000C943E0058
:100030000C943E000C943E000C943E000C943E0048
:100040000C943E000C943E000C943E000C943E0038
:100050000C943E000C943E000C943E000C943E0028
:100060000C943E000C943E0011241FBECFEFD8E04C
:10007000DEBFCDBF0E947F000C941C020C940000D8
:10008000CF93DF93CDB7DEB780EC90E020EC30E08B
:10009000F90120812260FC01208385EC90E0FC01C5
:1000A000108284EC90E02FECFC01208381EC90E046
:1000B00028E0FC01208382EC90E026E0FC01208314
:1000C0000000DF91CF910895CF93DF931F92CDB7BA
:1000D000DEB78983000080EC90E0FC018081882FEE
:1000E00090E080729927892BB1F386EC90E029810A
:1000F000FC01208300000F90DF91CF910895CF93F2
:10010000DF93CDB7DEB72E970FB6F894DEBF0FBEE4
:10011000CDBF0E94400081E40E94640080E090E036
:10012000AAEFB3E489839A83AB83BC8320E030E0F9
:100130004AE755E469817A818B819C810E9487011D
:10014000DC01CB018D839E83AF83B88720E030E054
:1001500040E85FE36D817E818F8198850E94010177
:1001600088232CF481E090E09A8789873FC020E0C3
:100170003FEF4FE757E46D817E818F8198850E9424
:10018000820118164CF520E030E040E251E469812C
:100190007A818B819C810E948701DC01CB01BC01AB
:1001A000CD010E940601DC01CB019A8789870FC02F
:1001B00080E991E09C878B878B859C850197F1F77F
:1001C0009C878B8789859A8501979A8789878985F6
:1001D0009A85892B69F714C06D817E818F819885FE
:1001E0000E940601DC01CB019A87898789859A855F
:1001F0009E878D878D859E850197F1F79E878D87D8
:100200008ACF0E94350108F481E008950E946101BF
:1002100088F09F5798F0B92F9927B751B0F0E1F0C7
:10022000660F771F881F991F1AF0BA95C9F714C077
:10023000B13091F00E947B01B1E008950C947B01F4
:10024000672F782F8827B85F39F0B93FCCF38695B0
:1002500077956795B395D9F73EF49095809570950D
:1002600061957F4F8F4F9F4F0895990F0008550F4D
:10027000AA0BE0E8FEEF16161706E807F907C0F02C
:1002800012161306E407F50798F0621B730B840B34
:10029000950B39F40A2661F0232B242B252B21F40E
:1002A00008950A2609F4A140A6958FEF811D811DAE
:1002B000089557FD9058440F551F59F05F3F71F056
:1002C0004795880F97FB991F61F09F3F79F08795BD
:1002D0000895121613061406551FF2CF4695F1DF46
:1002E00008C0161617061806991FF1CF86957105D6
:1002F000610508940895E894BB2766277727CB010A
:1003000097F908950E94350108F48FEF08950E942F
:100310009A010C940B020E94FD0138F00E94040225
:1003200020F0952311F00C94F4010C94FA0111249F
:100330000C947C010E94590170F3959FC1F3950FB5
:1003400050E0551F629FF001729FBB27F00DB11D59
:10035000639FAA27F00DB11DAA1F649F6627B00DE9
:10036000A11D661F829F2227B00DA11D621F739FD2
:10037000B00DA11D621F839FA00D611D221F749FE0
:100380003327A00D611D231F849F600D211D822F27
:10039000762F6A2F11249F5750409AF0F1F088234E
:1003A0004AF0EE0FFF1FBB1F661F771F881F91507B
:1003B0005040A9F79E3F510580F00C94F4010C9435
:1003C0007C015F3FE4F3983ED4F38695779567957B
:1003D000B795F795E7959F5FC1F7FE2B880F911DA5
:1003E0009695879597F9089597F99F6780E870E04B
:1003F00060E008959FEF80EC089500240A9416169B
:10040000170618060906089500240A941216130602
:10041000140605060895092E0394000C11F4882390
:1004200052F0BB0F40F4BF2B11F460FF04C06F5FAC
:0C0430007F4F8F4F9F4F0895F894FFCF2F
:00000001FF
