:020000020000FC
:040000000C94360026
:10006C00F89400240FEF102E00270FBECFEFD8E02E
:10007C00CDBFDEBF0C948C000091C0000D7F0093AF
:10008C00C00000E00093C50007E60093C40008E13F
:10009C000093C10006E00093C20008950092C100D5
:1000AC0008951091C00015FFFCCF0093C600089571
:1000BC000D91003011F0F5DFFBCF08951091C000C9
:1000CC0017FFFCCF0091C60008950591003011F088
:1000DC00E8DFFBCF089587BD02EC04BD65BDA99B8D
:1000EC00FECF05BCA99A06BC089580938800909316
:1000FC00890000EC0093800060938100B19BFECFDF
:10010C0000928100B19A009280000895F8940E94A8
:10011C004200259A9EE184E86DE02D9AE6DF2D9849
:04012C00E4DFFBCF42
:00000001FF
