:020000020000FC
:040000000C94360026
:10006C00F89400240FEF102E00270FBECFEFD8E02E
:10007C00CDBFDEBF0C94B6000091C0000D7F009385
:10008C00C00000E00093C50007E60093C40008E13F
:10009C000093C10006E00093C20008950092C100D5
:1000AC0008951091C00015FFFCCF0093C600089571
:1000BC000D91003011F0F5DFFBCF08951091C000C9
:1000CC0017FFFCCF0091C60008950D3059F0083091
:1000DC0081F00B3101F110E81023C9F40E94570094
:1000EC000D9308950E9457000D930AE00E9457004B
:1000FC00F7CFA81302C0B91749F00E94570000E2CD
:10010C000E94570008E00E9457000E9208950EE2DC
:10011C000E945700E5CF0895CD010E9464000E9413
:10012C006B000A30D1F70C92A81BB90BCD010895C6
:10013C000D910A930011FCCF0895A80FB91F0991D6
:10014C000E930197E1F708950196A80FB91F0C9231
:10015C000E9308950197A80FB91F0C910C92089556
:10016C000E9442000E94920001E40E945700FACFC4
:00000001FF
