:100000000C9434000C943E000C943E000C943E0082
:100010000C943E000C943E000C943E000C943E0068
:100020000C943E000C943E000C943E000C943E0058
:100030000C943E000C943E000C943E000C943E0048
:100040000C943E000C943E000C943E000C943E0038
:100050000C943E000C943E000C943E000C943E0028
:100060000C943E000C943E0011241FBECFEFD8E04C
:10007000DEBFCDBF0E946C000C9476000C94000093
:100080001092C1001092C0001092C6001092C500DC
:1000900087E690E09093C5008093C40088E090E0EC
:1000A0009093C2008093C10086E090E09093C300DB
:1000B0008093C20008952091C0003091C100207249
:1000C000332721153105E9F3082E000C990B909385
:1000D000C7008093C60008950E94400081E40E94FA
:1000E0005B0088EE93E00197F1F7F8CFF894FFCF2B
:00000001FF
